:020000040800F2
:10000000FF7F002051270108754400089927010847
:1000100077440008794400087B4400080000000091
:100020000000000000000000000000009927010807
:100030007D4400080000000099270108893D000860
:10004000992701089927010899270108992701088C
:10005000992701089927010897430008A74300083A
:10006000B7430008C7430008D74300089927010891
:10007000992701089927010899270108992701085C
:10008000992701089927010899270108992701084C
:10009000992701089927010899270108E7430008D3
:1000A00000000000992701089927010899270108F5
:1000B000992701089927010899270108992701081C
:1000C000992701089927010899270108992701080C
:1000D0009927010835480008992701084148000878
:1000E000134400080D3500089927010899270108D5
:1000F0009927010800000000000000000000000037
:1001000000000000000000000000000000000000EF
:1001100000000000000000000000000000000000DF
:1001200000000000000000000000000000000000CF
:0C01300000000000000000005FF808F173
:1001400010B5054C237833B9044B13B10448AFF311
:1001500000800123237010BDA802002000000000D1
:100160003C2C010808B5034B1BB103490348AFF30E
:10017000008008BD00000000AC0200203C2C0108FB
:100180000122014B1A70704700000020027838B538
:100190002AB1012A16D00122114B1A7038BD4578B8
:1001A000104C65B902231048237000F039FB294632
:1001B0000E4804F0F3FC201D04F0DBFBEBE7012309
:1001C0002370E8E74378002BE5D1094B1978002923
:1001D000E1D09A73027ADA73427A1A74DBE700BFCD
:1001E00000000020C4020020A831010830110020C6
:1001F0002C0D002008B5044804F030FCBDE8084090
:100200000121024804F0CABCDC0200207410002066
:1002100010B5064C204604F021FC054804F0C7FC4C
:100220002046BDE8104004F0A4BB00BFC802002077
:100230003011002030B501250B4C85B004F12C00A5
:1002400004F00CFC04A800F80C5D07F051FC30B978
:100250009DF808302BB102232370044B1D7005B0AC
:1002600030BD2570FBE700BFC40200200000002065
:100270002DE9F041437888B0A3B97B4C227812B1C4
:10028000A3890133A381437B2BB1C3781BB1022B1C
:100290000BD9E02B15D07548002104F07FFC744881
:1002A00004F067FB08B0BDE8F081037B012BF2D1BD
:1002B000836870481978C94301F0010104F06EFCAD
:1002C000E9E762BB037B042BE5D183681A78012A36
:1002D000E1D15A78012ADED19A78012ADBD1DB7884
:1002E000012BD8D10025E022634B03A883F84050AE
:1002F000624BA5815A7002229A7001238DF80C205E
:10030000237063708DF81030A573E573257407F0C2
:1003100085FC284607F0AAFF04F09CFCBBE7836835
:100320001A786270072AB6D8DFE802F0041D212788
:100330002D4249750023102101254F4A03A882F858
:1003400040304E4AA38191705570022223708DF87F
:100350000C208DF8103007F061FC284607F086FF6E
:1003600004F076FC97E70222444B9A7093E701234E
:10037000414A82F8403063708DE700223E4B83F89B
:1003800040200123F7E7027B3C4B3B499A70042352
:10039000F22A01F8413F28BFF2220123DCB2944245
:1003A000BFF479AF8468E45C01345C540133F5E751
:1003B000012308A800F8143D07F002FE6BE71023A4
:1003C0002E4D0026AB704FF0010802232A4F6846DD
:1003D0008DF8003085F8018087F84060A68126708E
:1003E0008DF8046007F01AFC404607F03FFF04F068
:1003F0002FFCEB1C049305F10B030593032313352A
:1004000003A88DF81C308DF80C60069507F0D8FD18
:1004100004233B703FE7027B032A0CD102228DF8B4
:100420000C205A789B7843EA0223ADF8103003A8D9
:1004300007F0C6FDA5E7072AA3D103228DF80C20FB
:1004400059789A7842EA0122ADF810201A79D978C1
:10045000120242EA014259790A4364214A43059251
:100460009B798DF81830E2E72C0D00203011002028
:10047000C802002074100020C402002000000020E8
:1004800070B5441E074E6518AC4204D1BDE87040FB
:10049000054800F0C5B914F8011F304600F0C0F956
:1004A000F2E700BFBD3101088033010800220023BC
:1004B00000B589B008A961E9022304A805F068F92C
:1004C00004F024FEDDE906230290CDE90023DDE9F6
:1004D0000423034800F0A4F909B05DF804FB00BF51
:1004E000C3310108192313B502A800F8013D01F03A
:1004F000E6FD9DF80740143464B28DF8074003F020
:10050000FBFB21460246024800F08AF902B010BD0A
:10051000FC31010804F0C0B90170012070470023CC
:10052000CA5C0AB918467047C2540133F8E7092B70
:10053000F8B504460F461D4602F1FF3612D90A23CC
:100540003246B5FBF3F3FFF7F2FF04440A22B5FB92
:10055000F2F302FB1353303323700130F8BD04F87B
:10056000017B013E002EFADC012AB8BF0122501E99
:10057000ECE7F8B583EAE375A5EBE375092D1746BB
:1005800004468C461E4602F1FF3211D90A23B5FB00
:10059000F3F3002EB8BF5B42FFF7EBFF22180A21EE
:1005A000B5FBF1F301FB1353303313700130F8BD89
:1005B000002BB8BFBA1E03461044C11A00290DDC37
:1005C000002EB8BF2D2122EAE27004EB000200F1F8
:1005D0000103BEBF215401321846E0E703F801CB06
:1005E000EBE7F7B5089D04465FEA151E8C461E46EC
:1005F00002F1FF3712D0CDF800E03A46FFF7F1FFE5
:10060000044405F00F05092DEBB20ED8303301304C
:10061000237003B0F0BD04F801CB013F002FFADCDA
:10062000012AB8BF0122501EEBE70EB13733EEE7C7
:100630005733ECE72DE9F3410E46044608B100219B
:10064000017000251178002964D1AE426BD80023D7
:10065000013D04F8013C67E05178252902D1217061
:1006600002325DE0302923D1901C002206E002EB2B
:10067000820207EB4202303A02F0FF02077880461E
:10068000A7F1300CBCF1090F00F10100EFD95019AE
:10069000B04284BF721BD2B2692F18D00BD8632F1F
:1006A00033D0642F13D0582F2AD04FF0FF353BE0C2
:1006B000501C2021D9E7752F14D0782F18D0732F14
:1006C000F3D1196820461F1DFFF729FF04E01F1D05
:1006D00020461B68FFF74DFF3B4608F1010204442A
:1006E0000544AFE71F1D20461B68FFF720FFF3E717
:1006F0001F1D1B68009300232046FFF772FFEBE7E6
:100700001F1D1B6800930123F6E71A680120227061
:100710000433E2E7AE429AD925299DD001322170F7
:10072000013501348EE72170284602B0BDE8F08122
:100730000CB407B504AB53F8042B0193FFF77AFF11
:1007400003B05DF804EB02B0704713460A4664211B
:10075000FFF770BF0EB403B503AA52F8041B019251
:10076000FFF7F3FF02B05DF804EB03B07047094BED
:1007700010B51B6804469A688A4202D0DB688B4237
:1007800004D1E0B2FFF7C6FE204610BD4FF0FF34A3
:10079000FAE700BFD400002070B505460E460446B7
:1007A000601B14F8013B2BB118463146FFF7DFFF01
:1007B000431CF5D170BDF0B5A3B06C4606468C461F
:1007C0002746104B03F1200E254618685968083358
:1007D00003C573452C46F7D118686146286009A8FF
:1007E000FFF7B3FF632806DD074B38461B68D9685F
:1007F000FFF7D2FFFEE7314609A8FFF7CDFF23B090
:10080000F0BD00BFEA320108D4000020034B0A46C5
:100810001B6801469868FFF7CEBF00BFD4000020D8
:100820000FB407B504A951F8040B0191FFF7EEFFCF
:1008300003B05DF804EB04B070470EB403B503AA2F
:1008400052F8041B0192FFF7B6FF02B05DF804EB0B
:1008500003B07047024B1B689968FFF79DBF00BF4C
:10086000D400002000000000002310B5074951F813
:100870003340DA00844203D80A449468844203D89F
:100880000133152BF3D1FEE7107910BD582C010868
:10089000054B93F8E9202AB993F8142112B90122E3
:1008A00083F81421704700BF680D0020014B93F8B6
:1008B000E8007047680D002037B500240D4D234631
:1008C00001221D212846CDE9004404F04DF9012004
:1008D00004F048F901232846CDE900432246234687
:1008E0001D2104F041F9062003B0BDE8304004F0BA
:1008F00039B900BF680D002070B506460C460D489A
:100900000021154604F04AF946F080010A4803F038
:1009100009FC013C084E2544AC4205D1BDE87040BD
:100920000121044804F03AB914F8011F304603F0DD
:10093000F9FBF1E7440E0020C80D002007B502AB1B
:1009400003F8011D01221946FFF7D6FF03B05DF839
:1009500004FB114B10B5C3F8EC0010F03BFE0CA3E8
:10096000D3E9002310F0DAFF11F070F90446C0F368
:1009700007410620FFF7E2FFC4F307210720FFF736
:10098000DDFFE1B20820BDE81040FFF7D7BF00BF90
:100990000000000080844E40680D002070B50646BF
:1009A0000C460E480021154604F0F8F806F07F01C9
:1009B0000B4803F0B7FB013C094E2544AC4205D17E
:1009C000BDE870400121054804F0E8B80021304638
:1009D00003F0A8FB04F8010FF0E700BF440E00206D
:1009E000C80D002007B501220DF10701FFF7D6FF62
:1009F0009DF8070003B05DF804FB38B50920FFF748
:100A0000F1FF05460620FFF7EDFF04460720FFF73C
:100A1000E9FF000240EA04440820FFF7E3FF204317
:100A200010F0D8FD1AA3D3E9002310F04DFE11F009
:100A30000DF9002104460920FFF780FF3B20FFF756
:100A4000D1FF40F04001C9B23B20FFF777FF3B20C8
:100A5000FFF7C8FF8206FAD40F48FFF77AFF3B2062
:100A6000FFF7C0FF40F04001C9B23B20FFF766FF2F
:100A70003B20FFF7B7FF8306FAD429460920FFF78A
:100A80005DFF2046BDE83840FFF763BFAFF300804D
:100A90000000000080844E4000A1BC332DE9F84FD7
:100AA000884618B1012855D000204CE06E4C272014
:100AB000B4F80451FFF796FF20F0F8000130284405
:100AC00010F098FD94F806310022002B3DD1674BC1
:100AD00010F044FC064630200F46FFF783FF30F04D
:100AE000F9030CBF0023614B00223046394610F059
:100AF00035FC064640460F4610F07CFD02460B468C
:100B00003046394610F02AFC94F808310022F3B937
:100B1000002310F023FC0022554B10F0D5FD0646B3
:100B2000D4F800010F4610F055FD02460B46304642
:100B3000394610F0F3FE00224E4B10F0C5FD12F0C6
:100B40002FF811F083F8BDE8F88F0023C0E74FF0CD
:100B50008043DEE7444CD4F82831073B022B78D899
:100B6000454A02EBC303D3E92C670120D4F82C518A
:100B7000A84010F03FFD02460B463046394610F0C3
:100B8000CDFE02460B460020384910F0C7FE06464F
:100B90000F46B4F8320110F02DFD0022374B10F053
:100BA000DDFB32463B4610F08FFD94F8343182462F
:100BB0008B4694F83601A900002BC1F11C0101EB12
:100BC000001114BF1420002001EBC801081A10F016
:100BD00001FD94F830318046002B14BF0220002024
:100BE000281A8000894610F0F5FC02460B46404664
:100BF000494610F093FE11F0C7FE8046894694F8EE
:100C00003101043010F0F6FC42464B4610F05CFD1A
:100C10000022002304460D4610F0E6FFE0B100225A
:100C2000134B2046294610F099FB32463B4610F004
:100C30004BFD52465B4610F091FB00220D4B10F02D
:100C400043FD07A3D3E9002310F088FB11F024FF34
:100C500077E70026002788E700200549E5E700BF81
:100C60002B8716D9CEF7EF3F680D00200000F03F2C
:100C70000000204000408F40582C01080000114027
:100C800008B520B101280AD04FF0FF3006E011204E
:100C9000FFF7A8FEC0F34700404200B208BD074B73
:100CA0001B20D3F8EC20064B9A4203D9FFF79AFE9B
:100CB0009D38F2E7FFF796FEA438EEE7680D0020B6
:100CC00040DD4A1F10B5044668B9012002F096FEC7
:100CD0000120FFF787FE00F0F80121430120BDE865
:100CE0001040FFF72BBE002002F088FE204602F0E5
:100CF00093FEEDE708B5074803F0B0FE064803F0A1
:100D0000ADFE0020FFF7DEFF0022044B83F8E82051
:100D100008BD00BFB40E0020400D0020680D00206B
:100D200008B5074803F09AFE064803F097FE012035
:100D3000FFF7C8FF0022044B83F8E82008BD00BF7E
:100D4000B40E0020400D0020680D0020F8B5814C45
:100D5000074694F8E9501DB1012D4DD0002625E03D
:100D6000402094F80A61FFF73DFE00F0030141F0D6
:100D70000C014020FFF7E2FD4120FFF733FE60F059
:100D80003E01C9B24120FFF7D9FD3520FFF72AFE09
:100D900000F03F0084F822011E210D20FFF7CEFD58
:100DA000A4F81451A4F82051A4F81E514FF48072F5
:100DB0000021694811F01AFD012384F8E83037B1A9
:100DC0006648394603F097FE644803F0D2FD94F874
:100DD000E930002B40F0B4800520FFF773FF002EB0
:100DE00040F0B680D4F810115D4803F084FEBDE8F1
:100DF000F8405B4803F0BDBD94F83931332033B37C
:100E0000FFF7F0FD40F04101C9B23320FFF796FD36
:100E100019213B20FFF792FDD4F828313120082B0F
:100E20007DD8FFF7DFFD00F07F013120FFF786FD61
:100E300000213020FFF782FDD4F82831082B1CD880
:100E4000DFE803F01036404A545E68686800FFF738
:100E5000C9FD00F0BE0141F001013320FFF76EFD36
:100E60001D21D6E72F204821FFF768FDD4F8EC00BC
:100E700000F5F4500230FFF76CFD94F8373194F828
:100E80003A61002B52D01D211120FFF757FD402061
:100E9000FFF7A8FD00F033014020FFF74FFD0021D0
:100EA0000F20FFF74BFD00210D20FFF747FD7DE7E9
:100EB0002F204421FFF742FDD4F8EC0000F522502A
:100EC0003430D8E72F204421FFF738FDD4F8EC0068
:100ED00000F574500430CEE72F204421FFF72EFD9B
:100EE000D4F8EC0000F5A2405E30C4E72F20442186
:100EF000FFF724FDD4F8EC0000F5F4401230BAE717
:100F00002F204421FFF71AFDD4F8EC0000F5224011
:100F1000C630B0E740212F20FFF710FDADE7FFF707
:100F200061FD60F07F01C9B23120F5E71F2111207A
:100F3000FFF704FD4020FFF755FD00F03F01ABE750
:100F400026B10520BDE8F840FFF7BCBE0620F9E752
:100F5000F8BD00BF680D0020FC030020B40E002087
:100F6000540D002010B5254C0146254803F0C3FD63
:100F700094F8E93063B1012B24D00223204884F88F
:100F8000E83003F0F6FCBDE810400320FFF79ABEFE
:100F90004020FFF727FD00F0030141F01001402041
:100FA000FFF7CCFC4120FFF71DFD00F03E01412082
:100FB000FFF7C4FC3520FFF715FD00F03F0084F873
:100FC0002201DAE794F8373173B1F5211120FFF7E8
:100FD000B5FC4020FFF706FD00F0330141F0400171
:100FE0004020FFF7ABFCC8E7F7211120FFF7A6FC74
:100FF0004020FFF7F7FC00F03F01EFE7680D00200D
:10100000400D002010B50D4C94F8E930012B13D1A0
:10101000FA211120FFF792FC4020FFF7E3FC00F0DB
:10102000FC014020FFF78AFC0323072084F8E83006
:10103000BDE81040FFF746BE10BD00BF680D0020A0
:1010400010B504460120FFF7CDFC10F0800F14BF4F
:1010500001220022184B83F8E92093F8E920A242EC
:1010600028D0012C83F8E94013D0FFF743FE01207C
:10107000FFF7B8FC00F07F010120FFF75FFC0021C3
:101080004020FFF75BFC3021BDE810404120FFF716
:1010900055BCFFF72FFE2046FFF7A4FC60F07F0150
:1010A000C9B22046FFF74AFC00214020FFF746FC6A
:1010B0000021E9E710BD00BF680D002038B5184BCE
:1010C0001849C3F80001184803F04CFC15491748AB
:1010D00003F048FC1349164803F044FCFFF7ECFB0F
:1010E000FFF78BFC0020FFF7EDFD124802F0A2FB9A
:1010F000114C04F130052078FFF7A2FF033414F8F7
:10110000011C14F8020CFFF719FCAC42F3D10020CB
:10111000FFF796FF0022094B83F8E82038BD00BF97
:10112000FC030020991D0008400D0020B40E002093
:10113000540D002024000020202D0108680D0020FF
:10114000F8B50D4617461C460646FFF779FF2846B8
:10115000FFF7FFFB0520FFF7B5FD012003F002FDBF
:1011600003F0D3FC0546284603F0D1FCA04204D38B
:101170000124FFF7BFFD2046F8BD3046FFF780FD94
:10118000B842F0DD0024F4E738B500240120FFF771
:1011900057FFFF211120FFF7D1FB0520FFF792FD3C
:1011A0002546012003F0DEFC2C20FFF71BFC00F09D
:1011B0000100A0400134202C45EA0005F1D1FFF7E1
:1011C00099FD284638BD2DE9F04F044689B00093BB
:1011D000BDF850308A4604939DF864309DF8601045
:1011E000029315469DF86C309DF868200593069291
:1011F000DDF84890BDF84C709DF854809DF858B0CB
:101200009DF85C600791FFF71BFFDDE9053234B103
:10121000012C079900F0878009B0BDE8F08FA64C3B
:10122000284684F8092184F80A31C4F8F8A0C4F8E3
:101230000051C4F8FC9084F8068184F807B184F862
:101240000861A4F8047110F0C5F9CDE90001024667
:101250000B460020994910F061FB0022984B10F0DA
:1012600033FACDE90201049810F0C4F902460B46A6
:10127000DDE9020110F028FA0022924B10F024FA66
:1012800010F0E4FCDDE90023C4F8100188A1D1E9E5
:10129000000110F043FB10F0D9FC84B2210A0220B7
:1012A000FFF74CFBE1B20320FFF748FB5046FFF786
:1012B000DBFA01461220FFF741FB4846FFF7D4FA5C
:1012C00001461320FFF73AFB390A2520FFF736FBCA
:1012D000F9B22620FFF732FBB8F1000F21D05946B2
:1012E0003220FFF72BFB3020FFF77CFBB8F1000F1B
:1012F00014BF00216FF07F0100F06F0040EA06107C
:101300000143C9B23020FFF719FB3120FFF76AFB18
:1013100040F040013120C9B209B0BDE8F04FFFF7FD
:101320000DBBFF21DCE7BAF1020F00D9FEE7624CEA
:101330009DF8000084F837119DF808100AF107099C
:101340000C2DC4F82891C4F82C5184F83101A4F86C
:10135000327184F8348184F835B184F8366184F8C8
:10136000381184F8392184F83A3100F29880052D3B
:1013700040F28180B9F1070F76D1A5F10B03012B63
:1013800077D801231D2084F83031FFF72BFB009B19
:101390001D2048EA430141EA0911C9B2FFF7CEFA1C
:1013A0001E20FFF71FFB049B00F00800C3F3012180
:1013B00041EA8601014341EA0511C9B21E20FFF747
:1013C000BDFA2620FFF70EFB94F8301120F008003C
:1013D00040EAC101C9B22620FFF7B0FA9DF810100B
:1013E0001F20FFF7ABFA390A2020FFF7A7FAF9B25E
:1013F0002120FFF7A3FAB8F1000F03D059462220AD
:10140000FFF79CFA94F837316BB14420FFF7EAFA02
:1014100060F07F01C9B24420FFF790FA94F83811C8
:101420002420FFF78BFAB9F1090F2AD1D4F8EC2068
:10143000254B02219A424FF036001ED9FFF77EFA63
:1014400064213A20FFF77AFA062D4FF031001BD1C4
:10145000FFF7C8FA00F0F80141F005013120FFF76D
:101460006DFA0C21372057E7B9F1080F01D10C2D87
:1014700087D0002386E70625FBE7FFF75FFA7F2189
:10148000DFE703213620DDE7FFF7ACFA00F0F801D3
:1014900041F003013120FFF751FA0A21E2E7BAF1E6
:1014A000020F4FF00C05E4D06BE700BFAFF30080F4
:1014B0000000000080847E41680D00200000F03FA5
:1014C0000000204000408F4040DD4A1F2DE9F04FD2
:1014D0008946834687B098469DF854309DF85C1045
:1014E00001939DF8583005920293189B0491039341
:1014F000109C9DF844A0BDF848709DF84C609DF884
:101500005050FFF79DFD484602F000FADDE9033137
:10151000059ABBF1000F05D0BBF1010F63D007B0F6
:10152000BDE8F08F8048C0E93D28C0F8004180F850
:101530000851C0F80C3180F8F090A0F8047180F8E0
:10154000066180F80911104610F044F872A3D3E93F
:10155000002310F0E3F910F079FB1FFA80F84FEA4E
:1015600018210420FFF7EAF95FFA88F10520FFF758
:10157000E5F9204610F02EF802460B4668A1D1E9A5
:10158000000110F0CBF910F061FB84B2210A0220B7
:10159000FFF7D4F9E1B20320FFF7D0F9390A25208B
:1015A000FFF7CCF9F9B22620FFF7C8F93020FFF792
:1015B00019FA002E14BF00216FF07F0100F06F00B8
:1015C00040EA05152943C9B23020FFF7B7F93120A9
:1015D000FFF708FA40F040013120C9B207B0BDE87A
:1015E000F04FFFF7ABB9504AB8F1020F82F82491DF
:1015F000914600D9FEE708F1070BC2F828B1C2F8FE
:101600002C4182F831A1A2F8327182F834619DF840
:1016100004200C2C89F837219DF8082089F83651D0
:1016200089F8382189F83911C9F83C316CD8052C72
:101630005DD9BBF1070F53D1A4F10B03012B54D893
:10164000012389F83031019B6BB14420FFF7CAF9BF
:1016500060F07F01C9B24420FFF770F999F83811A2
:101660002420FFF76BF91D2046EA4A06FFF7BAF976
:1016700046EA0B11C9B21D20FFF760F91E20FFF7E3
:10168000B1F9AD0000F00B0045EA04150543E9B2DD
:101690001E20FFF753F92620FFF7A4F999F830111F
:1016A00020F0080040EAC101C9B22620FFF746F940
:1016B000390A2020FFF742F92120F9B2FFF73EF95D
:1016C000062C4FF0310014D1FFF78CF900F0F8012F
:1016D00041F005013120FFF731F90C2137207DE77A
:1016E000BBF1080F01D10C2CAAD00023A9E70624D6
:1016F000FBE7FFF777F900F0F80141F00301312033
:10170000FFF71CF90A21E9E7B8F1020F4FF00C04CA
:10171000EBD095E7AFF300800000000080844E40DE
:101720000000000080847E41680D002030B54FF439
:101730007A748BB054430D46FFF70BF90023052252
:10174000CDE901324FF49652CDE90633CDE90433A9
:10175000039318462946009208941A46FFF7B6FEEE
:101760003120FFF73FF900F0BF013120FFF7E6F825
:101770000C4DF0214020FFF7E1F8A0214120FFF7B8
:10178000DDF82146284603F0B6F90222064B28462A
:1017900083F8E82003F0EDF803200BB0BDE83040FB
:1017A000FFF790BA400D0020680D0020324B70B555
:1017B00093F8E8101C46012902D002294DD070BDD3
:1017C00093F8E920D2B1012AF9D193F83731002BEF
:1017D000F5D002211220FFF7B1F8284BD3F80031E1
:1017E000002BECD05C69002CE9D01C20FFF7FAF844
:1017F0002346BDE8704000F03F001847DB6C0BB992
:1018000084F81411B4F81451012DD8D11C4803F0F8
:1018100025F9112084F81551FFF7E4F840084042FB
:1018200084F816011B20FFF7DDF805461C20FFF7A2
:10183000D9F840EA05200FF0DDFE0DA3D3E900231F
:101840000FF042FF10F0DAF9C4F818010C20FFF78E
:10185000C9F8400984F81C01B1E793F8E920012A8E
:10186000ADD193F83731002BA9D0B3E7AFF30080A7
:101870000000000080844E40680D0020FC03002022
:10188000540D0020124B70B593F8E950012D1ED174
:101890001220FFF7A7F810F001060E4C0CD005211E
:1018A0001220FFF74BF8D4F8003183B19B6973B174
:1018B0002846BDE87040184704211220FFF73EF883
:1018C000D4F800311BB19B690BB13046F1E770BD14
:1018D000680D0020FC0300200A4601460020FFF7A7
:1018E0000BB837B53C4C054694F8E9308DF8071035
:1018F0001BB1012B34D0002022E0A4F820319DF848
:10190000071094F80631A4F81E11EBB901210DF16E
:101910000700FFF7E1FF9DF80720531E3F2B17D864
:1019200084F82321284694F82311FFF7D5FFB4F853
:10193000202194F82331D4F80C011344A4F8203169
:10194000FFF710FB03B030BD3220FEF7F7FFE2E7F0
:101950002946224807F02BFE202384F82331E1E7B3
:1019600094F83931332063B3FFF73CF800F0BE013F
:101970003320FEF7E3FF19213B20FEF7DFFF9DF840
:101980000710222084F84811FEF7D8FF00210E200E
:10199000FEF7D4FF00210D20FEF7D0FF0120FFF756
:1019A00021F830F0F80304D1FFF7BAF9012003F071
:1019B000D9F828469DF80710FFF78EFFD4F83C01B0
:1019C000BEE7FFF70FF800F0BE0141F00101332040
:1019D000FEF7B4FF1D21CFE7680D0020FC030020B7
:1019E0000A4601460020FEF7D9BF002373B5904E8A
:1019F0008DF8073096F8E8303446012B04D0022BDE
:101A000000F0008102B070BD96F8E93043B3012BBD
:101A1000F8D140211220FEF791FF1220FEF7E2FFDD
:101A20008DF807009DF80730824D13F0200F00F06D
:101A3000998020211220FEF781FF96F83A310BB9E8
:101A400086F8E8307C4803F009F8D5F80031002B1F
:101A5000D8D01B69002BD5D002B0BDE87040184724
:101A600096F80831734DB3B33F20FEF7BBFF8DF8F6
:101A700007009DF807309B072DD40B213E20FEF771
:101A80005DFF10213F20FEF759FF6B4802F0E6FF93
:101A900096F80A6196B9694802F0E0FF84F8E860B8
:101AA000D5F8003113B11B6903B198470023A4F89E
:101AB0001431A4F82031A4F81E31A3E70D20FEF75D
:101AC00091FF40F04001C9B20D20FEF737FF5B489F
:101AD00002F04FFFE4E7B4F81E11B4F8200159B941
:101AE00050B994F8063153BB01215548FFF778FFF0
:101AF000B4F8200194F81E11091AC9B22844FFF75E
:101B00006FFFB4F81E314C48A4F8203102F0A6FF54
:101B100094F80A31CBB9494884F8E83002F09EFFC6
:101B2000D5F80031002BC1D09D68002DBED0002318
:101B300094F91621B4F81E113E48A847B6E73220A2
:101B4000FEF750FFA4F81E01D2E70D20FEF74AFF72
:101B500040F04001C9B20D20FEF7F0FE374802F018
:101B600008FFDDE71920FEF73DFF40B2002886F8A8
:101B70004401BFBF40428010404246B2A8BF861019
:101B80001A20FEF72FFF2F4AD4F8EC10002E40F356
:101B90000B13B8BF801980B291429BB28CBF9D38A5
:101BA000A4381844A4F846011320FEF71BFF84F85C
:101BB00048011020FEF716FF01460D20FEF7BEFE7D
:101BC00094F848111B48FFF70BFF94F83A310BB912
:101BD00084F8E830184802F041FFD5F80031002BB6
:101BE0003FF410AF9D68002D3FF40CAFAC4694F964
:101BF0004431B4F9462194F848110E4802B0BDE8CA
:101C000070406047104802F029FF96F8E930012B38
:101C100003D108211220FEF791FE002384F8E8305A
:101C2000044BD3F80031002B3FF4ECAE1B6811E7F6
:101C3000680D0020FC030020B40E0020540D00208D
:101C4000860E002040DD4A1F400D002070B5384C44
:101C500094F8E8102546012902D0022948D070BD29
:101C600094F8E930B3B1012BF9D1324802F0F6FE15
:101C700080211220FEF762FE002384F8E8302E4B0C
:101C8000D3F80031002BEAD0DB68002BE7D0BDE8A9
:101C900070401847B4F81E314BB9B4F8203133B94D
:101CA00094F80631C3B904F58F70FFF799FEB5F8C3
:101CB0002021B5F81E3195F822111F489B1A8B423E
:101CC00010440FDDFFF78CFE95F82231B5F8202186
:101CD0001344A5F82031C2E73220FEF783FEA4F8B2
:101CE0001E01E4E7D9B2FFF77BFEB5F81E31F0E73D
:101CF00094F8E930002BB2D1B4F82021B4F81E31A9
:101D000094F823110C489B1A8B42104409DDFFF70D
:101D1000E3FD94F82331B4F820211344A4F82031D2
:101D20009DE7D9B2FFF7D8FDB4F81E31F6E700BF42
:101D3000680D0020B40E0020FC03002038B50546D5
:101D40000C46FFF77DF915B1012D0BD038BD074BBF
:101D500093F80631002BF9D121463220BDE83840F6
:101D6000FEF7ECBD21462320F8E700BF680D0020F8
:101D700010B504460120FFF763F9064B83F8404194
:101D80002CB13421BDE810403920FEF7D7BD122117
:101D9000F8E700BF680D002070B5304C94F8E830CB
:101DA0002546012B02D0022B31D070BD94F8E930CA
:101DB000E3B9A4F814310B213E20A4F82031A4F893
:101DC0001E31FEF7BBFD10213F20FEF7B7FD94F852
:101DD0000A31B3B10D20FEF705FE40F04001C9B253
:101DE0000D20FEF7ABFD1E4802F0C3FD1D4BD3F8DE
:101DF0000031002BD9D0DB68002BD6D0BDE8704075
:101E00001847174884F8E83002F028FEEEE7FEF79E
:101E100053FDFEF7F2FD0020FEF754FF124C04F1D3
:101E200030062078FFF70CF9033414F8011C14F87D
:101E3000020CFEF783FDB442F3D10020FFF700F956
:101E400095F84001FFF794FF002385F8E830054B33
:101E5000D3F80031002BA8D05B68CDE7680D0020D7
:101E6000540D0020FC030020202D0108704700BF06
:101E70000122014B1A70704700050020012307B5AD
:101E800040F08002009307480B46322103F038FDF2
:101E9000012802D00448FEF7C3FC012003B05DF81E
:101EA00004FB00BFE00E00200E3301081FB5012225
:101EB00004AB03F8011D009232210246054803F0ED
:101EC000EFFC012802D00448FEF7AAFC012005B06F
:101ED0005DF804FBE00E00200E33010810B501F0A0
:101EE000BDFD0022034B1C781A7001F0BFFD204697
:101EF00010BD00BF0005002001460720FFF7BEBF50
:101F000037B504460D4607200DF10701FFF7B6FF70
:101F100038B1802C07D19DF90730002B0ADA012057
:101F2000287003B030BD402C08D19DF8073013F065
:101F3000400FF4D1002301202B70F2E7202C04D1B4
:101F40009DF8073013F0200FF3E7102C04D19DF813
:101F5000073013F0100FECE7082C04D19DF8073080
:101F600013F0080FE5E7042C04D19DF8073013F0B7
:101F7000040FDEE7022C04D19DF8073013F0020FA6
:101F8000D7E7012C04D19DF8073013F0010FD0E7FB
:101F90000020C6E713B504460DF107012020FFF726
:101FA0006DFF70B19DF80710202001F00F0141EA8C
:101FB0000411C9B28DF80710FFF778FF003018BF81
:101FC000012002B010BD13B504460DF107011F201A
:101FD000FFF754FF80B19DF80730E10123F0400383
:101FE00041EA84111943C9B21F208DF80710FFF789
:101FF0005DFF003018BF012002B010BD13B50446CC
:102000000DF107011F20FFF739FF70B19DF8071090
:102010001F2001F07F0141EAC411C9B28DF80710F9
:10202000FFF744FF003018BF012002B010BD13B508
:1020300004460DF106010820FFF720FF10B900202B
:1020400002B010BD0DF107010920FFF717FF0028AE
:10205000F5D09DF807209DF806300DF1060143EA02
:1020600002231B0923800A20FFF708FF0028E6D07F
:102070000DF107010B20FFF701FF0028DFD09DF8CD
:1020800007209DF806300DF1060143EA02231B09E3
:1020900063800C20FFF7F2FE0028D0D00DF107017D
:1020A0000D20FFF7EBFE0028C9D09DF807209DF812
:1020B0000630012043EA02231B09A380C0E713B5C1
:1020C00004460DF106010C20FFF7D8FE10B90020E0
:1020D00002B010BD0DF107010D20FFF7CFFE002863
:1020E000F5D09DF8073001202370F1E713B50446C1
:1020F0000DF106012020FFF7C1FE08B900203DE0E8
:102100000DF107012320FFF7B9FE0028F6D09DF856
:10211000062012F0F00F06D1204B5B7823F00F035E
:1021200013438DF80630012C2AD010D3022CE5D1B0
:102130009DF8063023F008038DF806309DF807302F
:1021400023F0080343F008038DF8073007E09DF8FB
:102150000630124A537003F00F038DF806309DF8D5
:1021600006102020FFF7A2FE0028C7D09DF8071018
:102170002320FFF79BFE003018BF012002B010BDE6
:102180009DF8063023F0080343F008038DF806306D
:102190009DF8073023F00803D6E700BF00050020B4
:1021A00013B504460DF107012020FFF767FE70B15B
:1021B0009DF8071004F0070421F0070121432020B7
:1021C0008DF80710FFF772FE003018BF012002B033
:1021D00010BD13B504460DF107012320FFF74EFE95
:1021E00070B19DF80710232021F0300141EA04115D
:1021F000C9B28DF80710FFF759FE003018BF012053
:1022000002B010BD13B504460DF107012320FFF7FE
:1022100035FE70B19DF80710232001F07F0141EADF
:10222000C411C9B28DF80710FFF740FE003018BF87
:10223000012002B010BD13B504460DF107012320A3
:10224000FFF71CFE70B19DF80710232021F040011C
:1022500041EA8411C9B28DF80710FFF727FE00305C
:1022600018BF012002B010BD13B504460DF10701DF
:102270002320FFF703FE70B19DF80710232021F003
:10228000060141EA4401C9B28DF80710FFF70EFEBE
:10229000003018BF012002B010BD13B504460DF187
:1022A00007012120FFF7EAFD70B19DF807102120FA
:1022B00021F0040141EA8401C9B28DF80710FFF74B
:1022C000F5FD003018BF012002B010BD13B5044663
:1022D0000DF107012120FFF7D1FD60B19DF8071036
:1022E000212021F0010121438DF80710FFF7DEFDC9
:1022F000003018BF012002B010BD13B504460DF127
:1023000007012120FFF7BAFD70B19DF807102120C9
:1023100021F0020141EA4401C9B28DF80710FFF72C
:10232000C5FD003018BF012002B010BD13B5044632
:102330000DF107012120FFF7A1FD70B19DF80710F5
:10234000212001F03F0141EA8411C9B28DF8071044
:10235000FFF7ACFD003018BF012002B010BD03280C
:1023600013B5044602D9002002B010BD0DF10701DB
:102370002120FFF783FD0028F5D09DF807102120CC
:1023800021F0300141EA0411C9B28DF80710FFF7BE
:102390008DFD003018BF0120E6E713B504460DF1AE
:1023A00007012120FFF76AFD70B19DF80710212079
:1023B00021F0080141EAC401C9B28DF80710FFF706
:1023C00075FD003018BF012002B010BD13B50446E2
:1023D0000DF107012220FFF751FD40B121462220D7
:1023E0008DF80740FFF762FD003018BF012002B0F2
:1023F00010BD13B504460DF107012520FFF73EFD82
:1024000040B1214625208DF80740FFF74FFD0030F1
:1024100018BF012002B010BD13B504460DF107012D
:102420003820FFF72BFD60B19DF80710382021F010
:102430003F0121438DF80710FFF738FD003018BF2A
:10244000012002B010BD08B50306014606D43A20AB
:10245000FFF72CFD003018BF012008BD0020FCE76D
:1024600008B50306014606D43B20FFF71FFD0030E8
:1024700018BF012008BD0020FCE7014608B53C203C
:10248000FFF714FD003018BF012008BD014608B554
:102490003D20FFF70BFD003018BF012008BD13B52C
:1024A00004460DF107013920FFF7E8FC30B19DF833
:1024B000070010F0400303D10120237002B010BDCB
:1024C000810600F0080200F0040318D55AB10BB1E0
:1024D0002C23F1E7830701D52A23EDE710F0010053
:1024E000ECD02923E8E70BB12423E5E7810701D5E8
:1024F0002223E1E710F00100E0D02123DCE75AB10C
:102500000BB11C23D8E7820701D51A23D4E710F0BA
:102510000100D3D01923CFE70BB11423CCE78307F5
:1025200001D51223C8E710F00100C7D01123C3E77B
:1025300007B524200DF10701FFF7A0FC58B19DF865
:102540000710242041F080018DF80710FFF7AEFC42
:10255000003018BF012003B05DF804FB13B504463A
:102560000DF107012420FFF789FC70B19DF80710D9
:10257000242021F0080141EAC401C9B28DF80710F6
:10258000FFF794FC003018BF012002B010BD07B562
:1025900031200DF10701FFF771FC03B05DF804FB7A
:1025A00013B504460DF107013020FFF767FC60B159
:1025B0009DF80710302001F0400121438DF80710ED
:1025C000FFF774FC003018BF012002B010BD13B536
:1025D00004460DF107013020FFF750FC70B19DF863
:1025E0000710302001F03F0141EA8411C9B28DF893
:1025F0000710FFF75BFC003018BF012002B010BDD0
:1026000013B504460DF106013020FFF737FC10B971
:10261000002002B010BD0DF107012420FFF72EFCB1
:102620000028F5D0012C9DF806300AD123F0400394
:1026300043F040038DF806309DF8073023F0040383
:102640000DE0022C1DD123F0400343F040038DF830
:1026500006309DF8073023F0040343F004038DF89F
:1026600007309DF806103020FFF720FC0028CFD05F
:102670009DF807102420FFF719FC003018BF012037
:10268000C7E7002CEDD123F04003D3E713B5044690
:102690000DF107013120FFF7F1FB60B19DF8073024
:1026A00003F07F03442B04D007D8412B01D0422BE9
:1026B00000D12370012002B010BD502BF9D0602B47
:1026C000F7D0482BF4E708B50306014606D43220BC
:1026D000FFF7ECFB003018BF012008BD0020FCE72D
:1026E00008B50306014606D43320FFF7DFFB0030B0
:1026F00018BF012008BD0020FCE71FB500241922E7
:1027000018212E4803F080F8234622461E212C482B
:10271000CDE9004402F028FA234622461F21294829
:10272000CDE9004402F020FA274B2246022124483A
:1027300002F027FA0A2002F015FA0DF10F010F201E
:10274000FFF79CFB9DF80F30332B05D01F48FEF799
:1027500067F8204604B010BD0120FFF734FC0220CA
:10276000FFF718FC0720FFF71BFD0120FFF7BEFC59
:102770000120FFF712FE0120FFF7A8FD4020FFF720
:1027800025FE0120FFF73EFD2046FFF722FD012038
:10279000FFF7E4FE0220FFF72CFE0820FFF793FF6F
:1027A0002046FFF79DFF0120FFF711FF0120FFF7F3
:1027B00027FF3F20FFF7F4FE0120CBE7E00E0020CB
:1027C000C80E0020D40E0020711E00081E33010820
:1027D000042807B528D10DF107012E20FFF74EFB85
:1027E00018B9002003B05DF804FB9DF807102E20F7
:1027F00001F01F018DF80710FFF758FB0028F0D0FB
:102800000DF107012420FFF739FB0028E9D024202F
:102810009DF8071001F0BF018DF80710FFF746FB88
:102820000028DED00120DDE710BB0DF107012420D8
:10283000FFF724FB0028D4D09DF80710242021F0B6
:10284000400141F040018DF80710FFF72FFB0028F1
:10285000C7D00DF107012E20FFF710FB0028C0D0D4
:102860009DF807102E2001F01F018DF80710D5E705
:10287000012829D10DF107012420FFF7FFFA0028D4
:10288000AFD09DF80710242021F0400141F0400115
:102890008DF80710FFF70AFB0028A2D00DF1070101
:1028A0002E20FFF7EBFA00289BD09DF8071001F0CF
:1028B0001F0141F040012E208DF80710FFF7F6FAB6
:1028C000003018BF01208DE7022823D10DF1070148
:1028D0002420FFF7D3FA002883D09DF80710242086
:1028E00021F0400141F040018DF80710FFF7DEFABA
:1028F00000283FF476AF0DF107012E20FFF7BEFA56
:1029000000283FF46EAF9DF8071001F01F0141F061
:102910008001D0E7032885D10DF107012420FFF7BE
:10292000ADFA00283FF45DAF9DF80710242021F098
:10293000400141F040018DF80710FFF7B7FA002879
:102940003FF44FAF0DF107012E20FFF797FA002853
:102950003FF447AF9DF8071001F01F0141F0C0019F
:10296000A9E713B504460DF107012E20FFF786FAFB
:1029700070B19DF807102E2021F0200141EA44118A
:10298000C9B28DF80710FFF791FA003018BF012087
:1029900002B010BD1F2813B5044602D9002002B0B2
:1029A00010BD0DF107012E20FFF768FA0028F5D0C1
:1029B0009DF807102E2021F01F0121438DF80710EC
:1029C000FFF774FA003018BF0120E8E7014627201E
:1029D000FFF754BA37B504460D4627200DF107011D
:1029E000FFF74CFAF0B1082C31D00AD8022C38D0BD
:1029F000042C31D0012C09D19DF8073013F0010FC0
:102A000016E0202C19D003D8102C1BD0002009E090
:102A1000402C09D0802CF9D19DF90730002B08DA21
:102A20000120287003B030BD9DF8073013F0400F2F
:102A3000F6D1002301202B70F4E79DF8073013F046
:102A4000200FF5E79DF8073013F0100FF0E79DF821
:102A5000073013F0080FEBE79DF8073013F0040F71
:102A6000E6E79DF8073013F0020FE1E713B50446DF
:102A70000DF106012820FFF701FA10B9002002B07D
:102A800010BD0DF107012920FFF7F8F90028F5D056
:102A9000BDF806300DF1060123802A20FFF7EEF97C
:102AA0000028EBD00DF107012B20FFF7E7F90028F4
:102AB000E4D0BDF806300DF1060163802C20FFF74D
:102AC000DDF90028DAD00DF107012D20FFF7D6F946
:102AD0000028D3D0BDF806300120A380CFE70146FF
:102AE0003120FFF7CBB907B50DF10700FFF7F7FF6E
:102AF0009DF807100248FDF793FE03B05DF804FB54
:102B00003533010837B504460D4631200DF1070174
:102B1000FFF7B4F960B1402C0CD19DF8073013F0E9
:102B2000400F13BF012000230120287008BF2B7025
:102B300003B030BD202C04D19DF8073013F0200FD6
:102B4000EFE7102C04D19DF8073013F0100FE8E7E1
:102B5000082C04D19DF8073013F0080FE1E7042C8E
:102B600004D19DF8073013F0040FDAE7022C04D1EA
:102B70009DF8073013F0020FD3E7012C04D19DF824
:102B8000073013F0010FCCE70020D1E701462F20DA
:102B9000FFF774B937B504460D462F200DF1070134
:102BA000FFF76CF938B1802C07D19DF90730002B65
:102BB0000ADA0120287003B030BD402C08D19DF8FE
:102BC000073013F0400FF4D1002301202B70F2E7FF
:102BD000202C04D19DF8073013F0010FF3E70020FB
:102BE000E9E713B504460DF107012F20FFF746F979
:102BF00028B101209DF8073003F01F03237002B0B5
:102C000010BD13B504460DF107012320FFF736F977
:102C100060B19DF80710232021F0010121438DF8B8
:102C20000710FFF743F9003018BF012002B010BDB4
:102C3000012070477047012813B521D10DF107011C
:102C4000104801F079FDD8B99DF807400E4B242CAF
:102C500002D01A787E2A01D900221A7019780B48FE
:102C60004A1CD2B20A2C1A70445409D100240231F1
:102C7000C9B21970845402F007FB204600F026FB0D
:102C800002B010BD3C11002002050020680F00209A
:102C9000074B1A7832B9012119700221054B0648F9
:102CA00001F06FBF002201211A70024BF7E700BF4D
:102CB000580F0020352C00084C0F0020012101483E
:102CC00001F06CBF5C0F00207FB500240125194B7B
:102CD000194E1C70194B2A461D700F212346CDE951
:102CE0000044174801F040FF234622462146304663
:102CF000CDE9004401F038FF224630460221114B55
:102D000001F03FFF104E114B7363FFF7D7FF2946C9
:102D100030461B231A2201F0B3FBCDE90144009495
:102D200023464FF416522946304601F0FBFB04B00F
:102D300070BD00BF020500204C0F0020580F00207E
:102D40005C0F0020352C00083C110020372C0008B7
:102D50000021014801F022BF5C0F0020704700BF36
:102D600070B5164C86B0002203A9064620460BF02B
:102D7000F9FD0DF10601002220460BF0D3FD9DF870
:102D80000920238C632A04BF012184F8221094F8BF
:102D90002210ADF8043039B11A44934201BF002229
:102DA000643384F822202384344601AD0FCD0FC450
:102DB00030462B68236006B070BD00BF04050020BC
:102DC0002DE9F04F89B000283AD103A8FFF7C8FFDA
:102DD0009DF81430BDF80C5000939DF80F809DF8BD
:102DE00010909DF811409DF815A09DF816304FF0F9
:102DF000000B00260027019325440FFA8BF3AB420A
:102E00002ADB08F1FF38002C6BD015F0030468D0E2
:102E100000243B4DDFF8ECB0E3B2434504F101047C
:102E200041DA2B44187B0BFB00F00EF0D3FB02467B
:102E30000B46304639460EF091FA06460F46EBE750
:102E4000037A0588009390F8038090F80490447901
:102E500090F809A0837ACAE71FFA8BF20BB19307A7
:102E60000BD123A3D3E90023304639460EF076FA7E
:102E70000BF1010B06460F46BFE71FA3D3E9002362
:102E8000F2E7E85C0BFB00F00EF0A4FB02460B46F9
:102E9000304639460EF062FA06460F46E3B2434525
:102EA00004F10104EDDB3C2000FB0AF04FF4616A01
:102EB000009B0AFB0300019B1844124B03FB090013
:102EC0000EF088FB32463B460EF048FA00220E4BCD
:102ED0000EF0FAFB0FF064FE0EF0B8FE09B0BDE88C
:102EE000F08F074DDFF81CB0D8E700BFAFF30080CC
:102EF0000000000050287E410000000038137E4191
:102F0000502D0108805101000040DF3F70B51D4C7D
:102F100086B094F823509DBB4FF4800393FAA3F33B
:102F20000126B3FA83F3184A204642F82360174B70
:102F3000C4E90455C4E900350323A561C4E902339B
:102F40000BF0DDFB4FF483732A460DF1060120469A
:102F5000ADF80630ADF808600BF087FC2A4603A9EF
:102F60002046CDE9035505950BF016FC2A460421B1
:102F700029200BF0EDF929200BF01EFA84F82360CC
:102F800006B070BD040500208006474200280040BE
:102F90002DE9F04F064693B04FF4807182480BF054
:102FA000FBFA824D80480CF01DF906AC06A8FFF72D
:102FB000D7FE0FCC0FC523689DF821A02B609DF88C
:102FC0001B309DF8205002939DF81D309DF81C4049
:102FD00001939DF822300393002E00F091807448F5
:102FE000B04228BF30460EF0F5FA69A3D3E90023BA
:102FF0000EF06AFB804689460FF0D2FDDFF8A8B1DB
:103000000646DBF824000F460EF0F4FA4246CDE9FE
:1030100004014B46304639460EF09EF90022654BBE
:103020000EF052FB02460B46DDE904010EF096F964
:103030000EF0E4FDB0F5F47F64DACBF824000FF273
:103040005819D9E9008942464B46304639460EF0B8
:10305000C1FD002863D10FF24819D9E90089424621
:103060004B46304639460EF0B5FD002862D14FF090
:103070000008DFF84C9142464B46304639460EF088
:10308000A9FD002861D103980EF0B4FA32463B4600
:103090000EF064F90EF0DAFD80B23B2862D8BAF186
:1030A0003B0F66D8172D6BD8029B01995A1E424BD5
:1030B00029B1BBF82010019E3144890765D19A5C83
:1030C000944284BF94FBF2F302FB13444FF00002DE
:1030D0004FF4807388BFA4B28DF82E000BA932483C
:1030E0001193CDE90E228DF82F208DF82DA08DF8AB
:1030F0002C508DF840400BF0F2FC13B0BDE8F08F7F
:10310000012070E7A0F5F470CBF824003946304672
:1031100000222A4B0EF022F906460F468FE7304672
:10312000394642464B460EF017F9013406460F4623
:10313000A4B288E73046394642464B460EF00CF9B9
:10314000013506460F46ADB289E73046394642465C
:103150004B460EF001F90AF1010A06460F461FFA26
:103160008AFA88E73C380AF1010A80B21FFA8AFA23
:1031700093E7AAF13C0A01351FFA8AFAADB28EE74D
:10318000183D0134ADB2A4B28CE713441A7B97E723
:10319000FCA9F1D24D620040000000000018F5408B
:1031A000000000000020AC4004050020E80F0020D3
:1031B0004206120000408F40502D01080000F03FF1
:1031C00000004E400D4B9A6A824207D293F82C20A1
:1031D00022B1002283F82C209A6A801A9A6A8242CD
:1031E0000AD2312803D8002283F82D20704701220B
:1031F00083F82D209B6AC01A704700BF0405002089
:103200000020DDE510B50020FFF7DAFD0446044894
:10321000FFF7D6FD844238BF04F1FF34201A10BDF9
:10322000E80F002010B50446FFF7EAFF204410BD68
:1032300010B5044638B10020FFF7C2FD84428ABFB2
:10324000E443041B2418204610BD08B50D4B93F829
:103250002E20AAB993F82D3093B100F003FD0CF0A5
:1032600070FF094A136843F0040313600AF098FEE4
:103270000AF07AFEBDE80840012108460CF09EBF26
:1032800008BD00BF04050020007000400C4B5A68C8
:10329000D20755BF01221A680A4B42F004024CBF04
:1032A0001A6083F82C20084A936803F00C03042B5F
:1032B00003D0936813F00C0F01D100F011BC7047DC
:1032C00000700040040500200038024010B504469C
:1032D00008B1FFF7DBFF024B83F82E4010BD00BFA3
:1032E000040500202DE9F04F0FF2EC19D9E900890F
:1032F0000FF2EC1BDBE900AB0C4685B0122200217B
:10330000074602300FF072FA20460EF063F976A3FA
:10331000D3E900230EF0D8F9002304460D461E46DB
:10332000019342464B46204629460EF053FC98BB7B
:103330006BA3D3E90023204629460EF04BFCDFF8AF
:10334000C48168B16EB1B2073ED065A3D3E9002352
:10335000204629460EF000F804460D460136B6B266
:1033600096BB4FF0010ADFF8A09108EB0A0313F8AF
:10337000010C09FB00F00EF02DF922462B46CDE999
:1033800002010EF01DFC002840D10FF26419D9E9AA
:1033900000890023029350E00EB1B10711D14246DB
:1033A0004B46204629460DF0D7FF0136B6B2642EB3
:1033B00004460D46B5D1019B002664339BB20193B0
:1033C000AFE752465B46ECE7B307CAD04FF0010ABD
:1033D000DFF8349108EB0A03D87A09FB00F00EF00D
:1033E000F9F822462B46CDE902010EF0E9FB002850
:1033F000CBD0DDE90223204629460DF0ADFF0AF1CE
:10340000010A04460D465FFA8AFAE3E72046DDE941
:10341000022329460DF0A0FF0AF1010A04460D46D9
:103420005FFA8AFAA1E72046294642464B460DF04C
:1034300093FF04460D46CDF808B0029B424603F1C7
:10344000010B20464B4629460EF0C4FB0028EAD16A
:10345000814629A3D3E900232046294609F1010B1F
:103460000EF0B8FB08BB80460022254B20462946BB
:1034700008F1010B0EF0AEFB10BB204629460FF001
:103480008FFBBDF8043087F803A03B809DF808301F
:103490007E713B7187F8089087F809800EF0D6FBA3
:1034A000B872384605B0BDE8F08F204612A3D3E9C4
:1034B000002329460DF050FFD94604460D46C8E7C3
:1034C0002046294600220E4B0DF046FFD846044602
:1034D0000D46C9E7AFF300800000000050287E4190
:1034E0000000000038137E41FCA9F1D24D6200407B
:1034F000000000000018F540000000000020AC4073
:1035000000004E40502D01088051010030B5234C81
:103510008DB020460BF08EF84FF4807120460BF0F2
:103520003BF8FFF7B3FE94F82F507DBB6846FFF7DA
:1035300017FC2B464FF4807205A920460BF082FB46
:103540003C234FF461659DF809009DF80A109DF831
:10355000152003FB00119DF8080005FB00109DF8E5
:10356000161003FB02129DF8143005FB0323C01A4A
:103570000EF030F80A4B00220EF0A6F80FF004FA15
:103580000EF064FB0123A06284F82F30002384F83E
:103590002E3001F037FA0DB030BD00BF0405002019
:1035A0000040DF3F30B50C460E4B05460E4885B057
:1035B000036003F58A331A6A42F400721A621B6AC6
:1035C00003F400730393039B07F008FA631C07D00E
:1035D00000230322CDE900332146284601F0C4FA36
:1035E00005B030BD00240140FC0F00204FF02062E8
:1035F0000848002342634FF4806242610122C0E91F
:1036000002334362C3628363C3638262C0E90633E9
:1036100006F0BBBDFC0F002030B5012285B092FA48
:10362000A2F3B3FA83F302249B0003F1844303F56E
:103630008E031A60284A94FAA4F3106894FAA4F34B
:10364000B3FA83F303F01F0320FA03F3D807F2D58C
:10365000136A224C43F400731362136A012203F4C9
:1036600000730093009B06230191204601A9CDE938
:10367000022306F0A9FF22682046936843F0010365
:10368000936007F0B3F84FF0FF31204606F03DFE9F
:10369000204606F0BFFE226885B2936823F001033E
:1036A0009360019B103B012B02D8204607F096F94E
:1036B000094A136A23F400731362012393FAA3F3F4
:1036C000B3FA83F3002228469B0003F1844303F5F9
:1036D0008E031A6005B030BD00380240FC0F002098
:1036E0000E4B1A6842F480721A6099680C4A0A40BC
:1036F0009A601A6822F0885222F001121A601A6841
:1037000022F480221A609A6822F47D029A600022D4
:10371000DA604FF00062034B9A6070470038024055
:103720000CC0FF8800ED00E01D4A10B591681D4BEC
:1037300001F00C011C480C2928D8DFE801F02727EC
:103740002727072727270A2727270C00174A1A6049
:1037500012E0174AFBE7946891689268C4F38344C7
:10376000D203045D54BF114A114AC1F3815162432F
:103770000131B2FBF1F11960094A9268C2F30312F8
:103780001044417A1A68CA401A6010BD4FF40041D3
:103790005268C2F34232013201FA02F2D7E700BFA7
:1037A000003802403C000020682D01080024F4008D
:1037B000001BB7000120704773B5012500241C4E83
:1037C0002A463046CDE900550023102101F0CCF9FE
:1037D00023462246A6F1C400CDE900540B2101F096
:1037E000C3F923462246A6F1B800CDE900541121C1
:1037F00001F0BAF923462246A6F1AC00CDE9005407
:10380000032101F0B1F923462246A6F1A000CDE93B
:103810000054602101F0A8F9CDE900542346224666
:103820002D21A6F1940001F09FF902B070BD00BFF8
:10383000440E002070B50546154C0368032220464F
:10384000012101F09EF96B6804F10C0003220121B3
:1038500001F097F9AB6804F118000322012101F08F
:1038600090F9EB6804F124000322012101F089F9A9
:103870002B6904F130000322012101F082F96B6908
:1038800004F13C000322BDE87040012101F079B948
:10389000800D002037B5002401221B4DCDE90042E8
:1038A00023462846102101F05FF923462246A5F160
:1038B000C400CDE900440B2101F056F9234622460D
:1038C000A5F1B800CDE90044112101F04DF92346DE
:1038D0002246A5F1AC00CDE90044032101F044F9F2
:1038E00023462246A5F1A000CDE90044602101F065
:1038F0003BF9CDE90044234622462D21A5F1940051
:1039000001F032F903B030BD440E002038B5044652
:103910000920FDF767F84D20FDF764F8112CCBBFA7
:1039200040F0070500F0F805EDB245F0040505F09C
:103930000703072B214612D1142CA8BF14210529F7
:10394000B8BF0521053961F00F01C9B20920FCF7A4
:10395000F5FF2946BDE838404D20FCF7EFBF112C9C
:10396000A8BF11210229B8BF02210239EBE780204C
:10397000704737B50124002522462B46CDE9004586
:1039800004210A4801F0F0F82B462246CDE9004513
:103990001721074801F0E8F8CDE900452B462246FB
:1039A0001621044801F0E0F803B030BD6810002093
:1039B0005C1000205010002013B5012300241A468B
:1039C000CDE9004404210A4801F0CEF80123CDE9F5
:1039D00000441A461721074801F0C6F80123CDE933
:1039E00000441A461621044801F0BEF802B010BD8A
:1039F000681000205C10002050100020054B1A7841
:103A0000824205D0187008B9FFF7B3BFFFF7D4BFE3
:103A1000704700BF34050020032808B50DD10121EF
:103A20000B4801F0BBF800210A4801F0B7F800216B
:103A3000BDE80840084801F0B1B80021044801F091
:103A4000ADF80021034801F0A9F80121F0E700BF1B
:103A5000681000205C1000205010002072B6024A4E
:103A6000137801331370704735050020034A13782B
:103A7000013BDBB2137003B962B670473505002015
:103A800070B5002486B0144E234603A8134DCDE92B
:103A9000004401220F2101F067F823463046CDE9AA
:103AA000004401220C2101F05FF823460122142179
:103AB0002846CDE9004401F057F801F0C1F8FEF7BF
:103AC0001CFE3046012101F069F80121284601F071
:103AD00065F806B070BD00BF3011002074100020E2
:103AE00070B5594E9AB07578584C002D76D109F0C2
:103AF0005DFC636A564A43F080536362636A012443
:103B000003F080530593059B13680DA823F4C0535D
:103B100043F48053136006230D931023CDE90F4423
:103B20001193169405F0DCFD0F23214608A8CDE97A
:103B30000834CDE90A550C9506F098F94FF4803316
:103B400006A80793069409F0A9FC06F05BFA4FF467
:103B50007A73B0FBF3F00AF05BFC04200AF006FD78
:103B600003200AF0E3FB2A4629464FF0FF300AF013
:103B7000EFFB0A2309222946364800F081FC2B4638
:103B80004FF4E13202213348CDE90155009500F0B0
:103B9000C9FCFFF7BBF909F061FC09F04FFC09F023
:103BA0006DFC02212C4801F015F84FF0FF3306227E
:103BB00007212A480093052300F022FA0124FFF789
:103BC000FBFD00232246CDE900346121244800F0AA
:103BD000CBFF737803B974701AB070BD636A1C4A66
:103BE00043F080536362636A03F080530D930D9B2F
:103BF000136823F4C05343F480531360012292FAF4
:103C0000A2F3B3FA83F3022120469B0003F184431D
:103C100003F58E031A6091FAA1F3226891FAA1F3D9
:103C2000B3FA83F303F01F0322FA03F3DB07F2D5A1
:103C3000A36823F0030343F00103A360836803F048
:103C40000C03042BFAD1ACE7350500200038024004
:103C500000700040EC10002024110020C80D00204E
:103C6000740D002010B5084C084800F0C3FF204632
:103C700000F064F9FFF70EFEA4F154000021BDE846
:103C8000104000F08BBF00BFC80D002024110020A1
:103C9000034A044B10681B68434010695840704742
:103CA0005400F81F5000F81F1049114A0B6810B556
:103CB000146823441B0EC37114680B6823441B0C47
:103CC000837114680B6823441B0A437112680B68E4
:103CD00013440371074BDA78C2705A8882701A68ED
:103CE000120A42701B68037010BD00BF5000F81F1D
:103CF0006400F81F5400F81F70B5174C02211748D4
:103D0000268800F07DFF054620880EF075F81449DE
:103D10000EF0CAF8044630460EF06EF80146204612
:103D20000EF076F90EF010FA80B20EF069F8044643
:103D300028460EF061F80B490EF06AF9014620465C
:103D40000EF0B2F80EF000FA032380B200EB800010
:103D500090FBF3F080B270BD7800F81F24110020B2
:103D600000404E4500F07F45014B1888704700BF6A
:103D70004000002008B5FFF7BFFF024B188000206D
:103D800008BD00BF4000002008B509F01AFBBDE8DF
:103D900008400AF0F8BB0020704700BFF0B50026CD
:103DA000042704461546164B85B05A6A22F40012C1
:103DB0005A625A6A42F400125A625A6A02F40012B3
:103DC0000392039A9A6942F400129A619A6922F462
:103DD00000129A61A3F5F23340F8543B0222CDE978
:103DE0000067012300F0C0FECDE900670123022235
:103DF000294604F1600000F0B7FE05B0F0BD00BF39
:103E0000003802400F4B17B4596A059C41F4001169
:103E100059625B6A446003F400130193019B6AB921
:103E2000826000234FF48042C0E90533C0E90332C9
:103E3000C0E9073303B010BC07F05EB84FF480430D
:103E40008360EEE70038024037B5044607F0E3F838
:103E50002268184B9A4203F5F2339A691FD142F453
:103E600000129A619A6922F400129A615A6A22F445
:103E70000012002520465A6210F9541F2B46CDE946
:103E80000055032200F070FE20462B4610F9601FFB
:103E90000322CDE9005500F067FE03B030BD42F4C7
:103EA00080029A619A6922F480029A615A6A22F425
:103EB0008002DEE700540040014B1970704700BFDC
:103EC000370500201FB50A4C2478002C4FF4FA6403
:103ED0000294BDF81840CDE900340CBF0123102333
:103EE00008F0AEF8B0FA80F0400904B010BD00BF91
:103EF000370500201FB50A4C2478002C4FF4FA64D3
:103F00000294BDF81840CDE900340CBF0123102302
:103F100008F032F9B0FA80F0400904B010BD00BFDB
:103F20003705002008B54FF496724FF4805308F01F
:103F30002DFCB0FA80F0400908BD00BF37B505463A
:103F400000240CF0E0F92846234610F9581F0122FE
:103F5000CDE9004400F008FE2846022310F9641F52
:103F6000012200930194234600F0FEFD28462346DB
:103F700010F9701F0122CDE9004400F0F5FD28463C
:103F8000012210F97C1F2346CDE9002200F0ECFD50
:103F900003B030BD30B500259DF90C40856069B98E
:103FA000C0E90312436107220023C262C0E908335B
:103FB00083620CB94FF48273436030BD4FF40061EB
:103FC000EEE70E4B1A6800238A4204D90133072B0F
:103FD0004FEA5202F8D113F0040F0CBF0022202246
:103FE00013F0020F0CBF0021102113F0010F0CBFC2
:103FF000002308230A431343C36170473C00002099
:104000002DE9FF478A46044690461F469DF93060D9
:10401000FFF724FDBAF1070F64D120463D4B5A69E2
:1040200042F480525A615A6922F480525A611A6AE3
:1040300042F480521A621B6A03F480530293029B7B
:10404000354B02254FF0050940F8583B2A4600231E
:104050005146CDE9005900F087FD00232A4641462C
:1040600004F16400CDE9005900F07EFD00232A46EA
:10407000394604F17000CDE9005900F075FD0123C7
:1040800031460093CDF8049000232A4604F17C00C9
:1040900000F06AFD01361AD14FF40073A3610023CA
:1040A000C4E90233C4E90433C4E90833A362072333
:1040B000E3624FF48273636018492046FFF781FF83
:1040C00009F010FF04B0BDE8F047FFF7CFBC0023B4
:1040D0000722C4E90233C4E90433C4E90833A36204
:1040E000E262E8E7BAF11F0FE6D10A4B20469A696F
:1040F00042F480429A619A6922F480429A615A6A33
:1041000042F480425A625B6A03F480430393039B48
:10411000034B96E70038024000300140809698003B
:104120000038004038B5054602680C46136843F075
:1041300040031360FFF792FC2B689A689107FCD547
:10414000E4B2DC609A68D207FCD5DC68FFF78EFC2D
:10415000E0B238BD70B5054686B014461E467BB346
:104160004388012901932DD12D4B0293AB7A01A9EC
:10417000039302236868049309F060FF032C98BF3F
:10418000284B6A8894BF195D0021B2F5807F24D046
:1041900025D8102A3FD01AD8042A38D0082A38D077
:1041A000022A3AD107242A781F4B02F00F0243F863
:1041B0002260204600220AF0CBF820460AF0FCF8E4
:1041C00006B070BD02290CBF184B194BCDE7402A31
:1041D00003D0802A01D0202A1FD11724E3E7B2F5AB
:1041E000805F12D008D8B2F5806F0ED0B2F5006FA4
:1041F0000BD0B2F5007FEFE7B2F5804F05D0B2F5F6
:10420000004F02D0B2F5005F07D12824CBE7082485
:10421000C9E70924C7E70A24C5E70624C3E700BFA6
:1042200000001110E82D01083805002000002110C1
:10423000000031107FB5438801A901930323406832
:10424000029309F0FBFE07B05DF804FB90F9003023
:10425000013304D0CAB2418840680AF03DB87047C3
:10426000F0B504468BB00170481C9DF840C0119F0A
:1042700021D0012601F00F00864011F0F005668084
:1042800034481AD134496160C16941F00101C1610A
:10429000C16901F00101009100990221059684F89D
:1042A0000AC0CDF81CC00891002A3CD1069205A98D
:1042B000606809F0C3FE0BB0F0BD102D0BD127498B
:1042C0006160C16941F00201C161C16901F002018F
:1042D00001910199E1E7202D0BD121496160C1696C
:1042E00041F00401C161C16901F004010291029928
:1042F000D3E7302D0BD11B496160C16941F0080142
:10430000C161C06900F0080003900399C5E7C56961
:10431000154945F020056160C561C06900F02000C5
:1043200004900499B9E7032AC0D0022A06D1012BD0
:104330000ABF1223069206930997B8E7012B0CBF18
:1043400011230123012A0693B1D139462046FFF7F4
:104350007DFFACE70038024000000240000402404C
:1043600000080240000C02400014024090F90030A6
:10437000013303D04188406809F0B3BF704708B5E6
:1043800090F90030013304D04188406809F09EFF65
:1043900008BD0020FCE708B5FEF778FFBDE808403F
:1043A000012009F0B8BF08B5FEF770FFBDE808406E
:1043B000022009F0B0BF08B5FEF768FFBDE808406D
:1043C000042009F0A8BF08B5FEF760FFBDE808406B
:1043D000082009F0A0BF08B5FEF758FFBDE8084067
:1043E000102009F098BF08B5FEF750FF202009F013
:1043F00092FF402009F08FFF802009F08CFF4FF4DE
:10440000807009F088FFBDE808404FF4007009F0A3
:1044100082BF08B5FEF73AFF4FF4806009F07BFFDA
:104420004FF4006009F077FF4FF4805009F073FFFC
:104430004FF4005009F06FFF4FF4804009F06BFF1C
:10444000BDE808404FF4004009F065BF60B902467E
:10445000074B53F822304BB1184740080128DAB215
:1044600003F10103F9D1F3E70023F7E7704700BF39
:10447000380500207047FEE7FEE7FEE770470000C2
:104480002DE9FF410C46054611461E4604703CBB13
:1044900001274FF00708224B04305A6942F480424A
:1044A0005A615A6922F480425A611A6A42F480427F
:1044B0001A621B6A022203F480430293029BCDE935
:1044C0000078234600F050FBCDE90078002302225B
:1044D000314605F1100000F047FB04B0BDE8F08163
:1044E000012CFAD107270E4B04309A6942F480223E
:1044F0009A619A6922F480229A615A6A42F480226F
:104500005A625B6A022203F480230393039BCDE982
:104510000047002300F028FBCDE90047D6E700BFA5
:10452000003802402DE9F74F9A4604789DF8303064
:1045300006468946934601939DF834809DF838508D
:10454000002C42D14B4A4C49283011604FF4007284
:104550004A4900F0B1F925274422464902FB0412DA
:10456000C2F804B08B46B9F1000F3BD1082151616C
:104570004422BAF1000F3FD102FB04B2C2F808A0F6
:10458000019B022B4FF044030CBF4FF4005200225A
:1045900003FB04B3DA60442303FB04B3B8F1000F58
:1045A00033D1C3F810804423002D37D103FB04B36B
:1045B0009D614425002305FB04B4E36120460BF014
:1045C000DCF8024600283FD0FEE7012C4ED1294AF4
:1045D0002B492C4851644FF400722B4900F06CF9C0
:1045E0002727B9E7B9F1010F01D10421BFE7B9F1DC
:1045F000020FBDD10C21BAE7BAF1010F02BF4FF48F
:10460000805302FB04B29360BAE7B8F1010F0CBF0C
:104610004FF480624FF4C0621A61C4E7012D05D1E6
:104620004FF4807203FB04B39A61C2E7022D04D1F8
:1046300003FB04B34FF40072F6E7032DB9D103FB7B
:1046400004B34FF44072EFE70821384609F080FECA
:10465000384609F0B1FE01222046317805FB01B150
:10466000403103B0BDE8F04F0BF053BA03B0BDE8E2
:10467000F08F00BF7413002000380140FC130020AD
:1046800000480040641100207411002037B5037801
:1046900004460BBB184B5A6942F480425A615A696E
:1046A00022F480425A611A6A22F480421A6200257A
:1046B00020462B4610F9041F0322CDE9005500F0D7
:1046C00053FA20462B4610F9101F0322CDE900555E
:1046D00000F04AFA03B030BD012BE8D1064B9A69CD
:1046E00042F480229A619A6922F480229A615A6A7D
:1046F00022F480225A62DAE70038024070B500F1F5
:104700001C0528460E4600F0FDF8044678B9FFF770
:10471000A5F92846314600F0D4F8FFF7A7F920465E
:10472000044B1A68D36843F08003D36070BD012046
:10473000FCE700BF7413002070B5054628350E460F
:10474000FFF78CF9284600F0D7F8044638B9284618
:1047500000F0C3F83070FFF789F9204670BDFFF70D
:1047600085F90120FAE713B504460C4800F0C4F8B7
:1047700080B90A4800F0B1F802A901F8010D012240
:1047800020460BF09CF9064B5B6B0BB10020984761
:1047900002B010BD252009F01BFEF4E7081100202F
:1047A000EC100020F8B5154CA04222D004F14403CF
:1047B000984221D10125124E06F12807384600F013
:1047C000A1F838B9442303FB0543384693F8401059
:1047D00000F077F8736B0BB10120984744206843D1
:1047E00000F14001214420440122BDE8F8400BF0D3
:1047F00090B90025034EDFE7F8BD00BF7413002019
:104800003C110020EC100020094B98420DD003F120
:10481000440290420BD101224420504300F1400158
:104820000122194418440BF074B90022F4E77047D0
:104830007413002001480BF0E5BA00BF7413002088
:104840000A4B5A6C1168D26849060CD552060AD533
:1048500093F87D20222A03D093F87D20322A02D1BA
:10486000322283F87D2002480BF0CCBA741300206A
:10487000B813002007B507480DF10701FFF75CFFEB
:1048800020B99DF8070003B05DF804FB4FF0FF303E
:10489000F9E700BFEC10002007B502A901F8010DEF
:1048A0004FF6FF73012203480BF04CF803B05DF89C
:1048B00004FB00BF7413002000230281C0E9003113
:1048C0007047438810B504895A1C92FBF4F304FB2B
:1048D000132342684380D15410BD028803460089E7
:1048E000511C91FBF0F200FB12125968885C1A808F
:1048F000704700230360704702884088131A5842AB
:1049000058417047438801895A1C92FBF1F301FB1F
:10491000132300889BB2C31A5842584170470000C5
:104920000022064B10B51A7004460068FEF74AFCD8
:104930002060BDE81040FEF72BBB00BF78050020CB
:10494000074B10B45A6822B10468091B116000219A
:1049500011720261012210BC02725860E0E700BFD0
:10496000780500200023C0E900330372C0E9031377
:104970007047F8B50446FFF771F8BCB1204D6A687E
:104980001346BBB961682372216062B1137AABB17F
:10499000FEF738FC6B681968884294BF091A491AF7
:1049A00023688B420CD22046FFF7CAFFBDE8F840CF
:1049B000FFF75CB89C42F9D01B69E2E71168EFE7AA
:1049C0006E68326922B95B1A236034612261EDE7B7
:1049D00010680844834205D25B1A23601068C31A2A
:1049E0001360F2E7156925B91B1A2360146125616C
:1049F000DCE72F680146164638442A46EAE700BF3E
:104A00007805002010B5144C63687BB1FEF7FAFB03
:104A1000002163681A68197282428ABF121A1960EB
:104A20001A600023606850B903B1606010BDD0E91E
:104A300003200123002AF6D060609047F1E7026866
:104A4000002AF4D003B16060037A002BEED1BDE8F8
:104A500010400123037263E778050020F8B5204E6B
:104A60000546FEF7FBFF7468374604B11DB9BDE883
:104A7000F840FEF7FBBFAC4226D1237AC3B1FEF764
:104A8000C1FB75682B6983B1002221682A721A68FC
:104A900081420A4494BF501A101A012218601A72F7
:104AA00018467360FFF73CFFE1E700237B60DEE719
:104AB0002369002BF9D0216873601A680A441A60D0
:104AC000D5E72361D3E71C462369002BCFD09D4255
:104AD000F9D12B69002BF4D029682361EDE700BFE1
:104AE0007805002010B50446FFF7B8FF2046BDE862
:104AF0001040FFF73EBF38B504460D46FFF7AEFF46
:104B0000C4E9005538BDFEF77DBBFEF779BBFEF763
:104B10008FBBFEF787BB08B50B4B5A6842B1127AC0
:104B200032B11A78042A04D81A780132D2B21A7033
:104B300008BD00221A70FFF72EF90128F8D1BDE850
:104B40000840FEF782BB00BF7805002008B5044985
:104B50000DF0AAF90DF0F8FABDE8084008F03EBCE7
:104B600000007A4408F03ABC30B4C1F30715062DB2
:104B70009DF8084003D8029430BCFFF771BB30BCED
:104B8000704710B490F90040C4F30714062C02D803
:104B900010BCFFF7DFBA10BC7047704790F90030C7
:104BA000C3F30713062B01D8FFF750BB704790F9EA
:104BB0000030C3F30713062B01D8FFF7D7BB7047AC
:104BC00090F90030C3F30713062B01D8FFF7D7BBCA
:104BD0000020704708B5064B1A783AB901221A70BE
:104BE000FEF7E0FCBDE80840FEF700BD08BD00BFD1
:104BF000800500200022014B1A70704780050020BC
:104C0000034B1B780BB1FEF707BD1846704700BF7A
:104C1000800500200000000038B501240021074B6A
:104C200005465A681C702244092A5A60017004D94A
:104C300020465960FEF74AFB2C7038BD88050020DD
:104C40000022024B1A70FEF73FB800BF8805002013
:104C5000FEF734B8FEF77CB8FEF780B810B5FEF763
:104C6000FDFE0022034B1C781A70FEF7FFFE204663
:104C700010BD00BF88050020074910B5D1E9020129
:104C8000002200234FF001040CF086FF08B14FF022
:104C9000000404F0010010BD88050020D0B51B4CB5
:104CA0000022D4E904670023304639460CF092FF15
:104CB00028B34FF04042164B304639460CF004FD05
:104CC0000022144B0CF02AFE0CF098FFD4E9086780
:104CD000A06100220023304639460CF07BFF88B1EA
:104CE0004FF040420A4B304639460CF0EDFC0022B2
:104CF000094B0CF013FE0CF081FFA062D0BD002226
:104D0000064BD9E70022054BEDE700BF88050020E0
:104D1000FFFF5F4100805640008066400000604118
:104D2000974B2DE9F347A3F112052C4605F11C0121
:104D300013F8012F02F00F028B421A70F8D1207E77
:104D40000CF048FC00228F4B0CF0BEFC0646607E47
:104D50000F460CF03FFC00228B4B0CF0B5FC0246DA
:104D60000B46304639460CF0F9FA0646A07E0F464F
:104D70000CF030FC0022854B0CF0A6FC02460B46E2
:104D8000304639460CF0EAFA0646E07E0F460CF053
:104D900021FC02460B46304639460CF0DFFA76A37A
:104DA000D3E900230CF090FC0646607D0F460CF022
:104DB00011FC0022754B0CF087FC8046A07D8946D3
:104DC0000CF008FC02460B46404649460CF0C6FA79
:104DD00002460B46304639460CF0C0FA00226C4BB6
:104DE0000CF09CFD8046E07C89460CF0F3FB002231
:104DF000664B0CF069FC0646207D0F460CF0EAFB82
:104E000002460B46304639460CF0A8FA02460B46DD
:104E1000404649460CF0A2FA0B4602465D4E283544
:104E2000B246C6E90423637F532B08BF01F100415A
:104E3000594B04BF3061716113F8012F02F00F026A
:104E4000AB421A70F8D1E07F0CF0C4FB00224E4B4D
:104E50000CF03AFC064694F820000F460CF0BAFB22
:104E600000224A4B0CF030FC02460B4630463946D5
:104E70000CF074FA064694F821000F460CF0AAFBD9
:104E800002460B46304639460CF068FA064694F85E
:104E900022000F460CF09EFB00223C4B0CF014FC51
:104EA000804694F8230089460CF094FB02460B469A
:104EB000404649460CF052FA0022354B0CF02EFDCC
:104EC00002460B46304639460CF048FACDE900015F
:104ED00094F825000CF07EFB00222A4B0CF0F4FB2A
:104EE000064694F826000F460CF074FB0022264B71
:104EF0000CF0EAFB02460B46304639460CF02EFA1F
:104F0000804694F8270089460CF064FB00221F4B72
:104F10000CF0DAFB064694F828000F460CF05AFB1A
:104F200002460B46304639460CF018FA02460B464C
:104F3000404649460CF012FA0FA3D3E900230CF0C7
:104F4000C3FB0022124B0CF0E9FC02460B46DDE9E4
:104F500000010CF003FA0B460246CAE9082394F854
:104F60002A30572B02BF01F10041CAF82000CAF8CD
:104F7000241002B0BDE8F0872D431CEBE2361A3F47
:104F80000E16002000408F400000594000002440D1
:104F900000004E40880500201A1600202DE9F84F29
:104FA000002300260027DFF8A8B01D46DA46264C6D
:104FB000C4E9006705EB0B0292F831002E2815D1E9
:104FC0000BB1C4E90067554495F8320030380CF055
:104FD00011FB19A3D3E900230CF076FBD4E90023DD
:104FE0000CF0BCF9C4E90001BDE8F88F3038C3B259
:104FF000092B19D80CF0FEFA002280468946134B83
:10500000304639460CF060FB0B46024649464046A6
:105010000CF0A4F90135042D06460F464FF00103AC
:10502000C8D1C4E90067DFE705A3D3E90023C4E9D9
:105030000023D9E7AFF300809A9999999999B93FDC
:10504000000000008087C34048000020000024408A
:10505000FC1500202DE9F84F002300260027DFF87B
:10506000A8B01D46DA46264CC4E9026705EB0B02E0
:1050700092F837002E2815D10BB1C4E902675544C8
:1050800095F8380030380CF0B5FA19A3D3E90023AD
:105090000CF01AFBD4E902230CF060F9C4E9020118
:1050A000BDE8F88F3038C3B2092B19D80CF0A2FA3A
:1050B000002280468946134B304639460CF004FBEB
:1050C0000B460246494640460CF048F90135062D8C
:1050D00006460F464FF00103C8D1C4E90267DFE777
:1050E00005A3D3E90023C4E90223D9E7AFF3008085
:1050F0009A9999999999B93F00000000008EC24091
:105100004800002000002440FC15002010B5FEF7E8
:10511000A5FC0D490022D1E902010C4B0CF03CFD2D
:105120000B4C60B10B480DF038FB2082FEF79EFC63
:1051300008490948FBF774FBB4F9100010BD4FF69D
:10514000FF732382F2E700BF880500200000F03FD4
:1051500048000020331600205533010810B5FEF733
:105160007DFC0B490022D1E902010A4B0CF014FD31
:10517000094C20B904A3D3E90023C4E90023FEF7B6
:1051800075FCD4E9000110BD33333333F387C340DA
:10519000880500200000F03F4800002010B5FEF711
:1051A0005DFC0B490022D1E902010A4B0CF0F4FC32
:1051B000094C20B904A3D3E90023C4E90223FEF774
:1051C00055FCD4E9020110BD00000000008EC24071
:1051D000880500200000F03F4800002070B516460A
:1051E000E0B1DAB1012919DD002590F90040A4F100
:1051F00024035C425C41035701342A2B0AD128095D
:1052000004F0F0F9307005F00F0004F0EBF9707065
:10521000204670BD5D40A142EDB2ECDC4FF0FF34A2
:10522000F6E710B5134C0522134920460DF0E6FAB7
:1052300090B994F82C300022302B18D800230F4955
:10524000C1E90223FFF76CFDFFF728FDFFF7A6FE7B
:10525000BDE81040FFF7FEBE0522094920460DF0CB
:10526000CDFA0028EED1637C0022412BE6D1054B1C
:10527000E5E700BFFC150020EC2D010888050020A3
:10528000F22D01080000F03FF7B590F90030044618
:10529000242B0D4604D0FDF7FBFC002003B0F0BD2D
:1052A00001AAFFF79BFF0028F7DB023DA842F4DAD2
:1052B00022569DF904309A42EFD1204490F9012002
:1052C0009DF905309A42E8D10123E256DEB22C2A3C
:1052D0001DD12246AE4912F8013F01F8013F131BD0
:1052E000DBB29E42F7D80522AA49AB480DF086FAF8
:1052F0000136F6B2A84D002800F014810522A74916
:1053000028460DF07BFA0028C7D101224CE1013379
:10531000082BDAD1C1E701320D2ABED0B1182144E1
:1053200011F9011CD3B22C29F5D10022B118C9B250
:10533000615CA81801328171D1B29942F6D3012182
:105340003344DAB25018204410F9010CCBB22C28A7
:1053500040F0EA8000215018C0B2205C6E18013184
:10536000F074C8B29842F6D301211344DAB2A018FF
:10537000461816F9016CCBB22C2E40F0DA80017879
:10538000012B697702F10101C9B218BF615C1344B6
:1053900018BFA9770121DAB25018204410F9010C86
:1053A000CBB22C2840F0CA8000215018C0B2205C3B
:1053B0006E180131F077C8B29842F6D30121134438
:1053C000DAB2A018461816F9016CCBB22C2E40F0B8
:1053D000BA800178012B85F82A1002F10101C9B2C7
:1053E00018BF615C134418BF85F82B100121DAB295
:1053F000A018461816F9016CCBB22C2E40F0A880EC
:105400000178012B85F82C1002F10101C9B218BFF7
:10541000615C134418BF85F82D100121DAB25018D1
:10542000204410F9010CCBB22C2840F096800021CA
:105430005018C0B2205C6E18013186F82E00C8B238
:105440009842F5D301211344DBB25818204410F9D7
:10545000010CCAB22C2840F0858000215818C0B237
:10546000205C6E18013186F83100C8B29042F5D345
:1054700001211344DAB25018204410F9010CCBB2C8
:105480002C2874D1444E002031461518EDB2655DCC
:105490008719013087F83750C5B29D42F5D30120F6
:1054A0001344DAB2A5182E1816F9016CC3B22C2ECB
:1054B00061D12878012B81F83F0002F10100C0B2D0
:1054C00018BF205C134418BF81F840000120DAB2F5
:1054D0001518254415F9015CC3B22C2D4FD10020BD
:1054E0001518EDB2655D0E18013086F84150C5B251
:1054F000AB42F5D813440122DBB2E018861816F946
:10550000016CD5B22C2E3ED102780133DBB2012DD5
:1055100081F849201CBFE35C81F84A30FFF781FE27
:105520000120BBE60122F9E601310C297FF40AAF24
:10553000B3E6013104297FF41BAFAEE601310D293A
:105540007FF42AAFA9E6013104297FF43BAFA4E63A
:10555000013104297FF44DAF9FE6013105297FF425
:105560005EAF9AE6013108297FF46FAF95E601310D
:105570000A2980D191E60130042894D18DE60130CA
:105580000A28A5D189E60132042AB7D185E600BFF1
:10559000FB150020EC2D0108FC150020F22D010860
:1055A00001320D2A3FF479AEB118214411F9011CE2
:1055B000D3B22C29F4D10022B118C9B2615CA81869
:1055C00001328171D1B28B42F6D801213344DAB273
:1055D000A018461816F9016CCBB22C2E40F09E8014
:1055E0000178012B697402F10101C9B218BF615C35
:1055F000134418BFA9740121DAB25018204410F9DD
:10560000010CCBB22C2840F08E8000215018C0B283
:10561000205C6E180131F074C8B28342F6D80121C3
:105620001344DAB2A018461816F9016CCBB22C2E2E
:105630007ED10178012B697702F10101C9B218BF4F
:10564000615C134418BFA9770121DAB250182044D5
:1056500010F9010CCBB22C286FD100215018C0B228
:10566000205C6E180131F077C8B28342F6D8012170
:105670001344DAB2A018461816F9016CCBB22C2EDE
:105680005FD10178012B85F82A1002F10101C9B21E
:1056900018BF615C134418BF85F82B100121DAB2E2
:1056A0005018204410F9010CCBB22C284DD1002108
:1056B0005018C0B2205C6E18013186F84B00C8B299
:1056C0008342F5D801211344DBB25818204410F965
:1056D000010CCAB22C283CD100215818C0B2205C61
:1056E0006E18013186F85300C8B28242F5D81344CF
:1056F0000122DBB29918214411F9011CD0B22C29E6
:105700002BD10022174E9918C9B2615C951901324C
:1057100085F85B10D1B28842F5D8FFE60131042943
:105720007FF457AFB9E501310C297FF466AFB4E5DA
:10573000013104297FF477AFAFE501310D2985D11F
:10574000ABE50131042996D1A7E501310A29A7D19A
:10575000A3E501310A29B8D19FE501320A2AC9D14E
:105760009BE500BFFC1500204FF6FF72064B0020A2
:105770001A8200210022054BC3E90401C3E9080194
:105780009A619A62704700BF480000208805002097
:10579000F8B50C4D07460E46D5E9020100220A4B2A
:1057A0000CF0FAF9044658B9FFF7DEFF2046D5E9B8
:1057B0000423C7E90023D5E90823C6E90023F8BD7F
:1057C0000120F4E7880500200000F03FF8B50C4DFB
:1057D00007460E46FEF742F9D5E902010022094BC1
:1057E0000CF0DAF9044648B9FFF7BEFFAB693B603D
:1057F000AB6A3360FEF73AF92046F8BD0124F5E7BD
:10580000880500200000F03F094B73B51C78064660
:1058100064B901251D70FEF7C1FA064B2246CDE999
:10582000004321462B463046FEF7ECFA02B070BD2D
:10583000B4050020801A06000022024B1A70FEF701
:1058400003BB00BFB40500200022034B18211A70CF
:105850001922FFF7D9BF00BFB4050020F0B585B00D
:105860008DF80F300D4B05461C780E4617469CB13F
:1058700001240DF10F030094FEF724FB60B900949E
:105880000DF10F033A4631462846FEF71BFB003068
:1058900018BF012005B0F0BD2046FBE7B40500208D
:1058A0002DE9F7430E4C064624780F46904699465C
:1058B000BDF8285084B10095FEF704FB70B900953F
:1058C0004B46424639463046FEF7FCFA003018BFD8
:1058D000012003B0BDE8F0832046FAE70120F8E795
:1058E000B405002013B5054C24782CB10124009494
:1058F000FEF700FB02B010BD2046FBE7B405002018
:1059000030B4064CBDF8085024781CB1029530BC68
:10591000FEF7F0BA204630BC704700BFB405002047
:1059200010B5102204460021F13003F054FE00218E
:105930002046C4F81411F022BDE8104003F04BBE1D
:105940000B4602461021184600F087B92DE9F043B6
:105950000446D0F8140185B00E46154604F201182D
:1059600020B3C0F1100991454F4628BF1746404467
:10597000BAB203F01CFED4F814313B440F2BC4F828
:1059800014311ED9A9451CD204F1F103194613F8AC
:10599000012BD87B434582EA000203F8012CF6D1A3
:1059A0002246084600F0D6F93E44ED1B04F1F1070B
:1059B000102D09D8AAB23146404603F0F8FDC4F8CC
:1059C000145105B0BDE8F08304F1F002731E06F136
:1059D0000F0013F801CF12F8011F834281EA0C0176
:1059E0001170F6D110223946684603F0E0FD2246D8
:1059F0006946684600F0AEF910226946384603F061
:105A0000D6FD1036103DD3E770B50C4688B0102295
:105A100000210546684603F0DEFD224669466846D9
:105A200000F098F99DF900306A46002B0DF10F0146
:105A300040DA137812F8010F5B005BB243EAD0132F
:105A4000914202F8013CF4D19DF80F305B0083F0E5
:105A500087038DF80F30D4F81431102B39D100237F
:105A600004F2011211781DF8030001334140102B9C
:105A700002F8011BF6D104F1F103194604F20110FA
:105A800013F8012BDE7B984282EA060203F8012C10
:105A9000F6D110220DEB020003F089FD22462946C3
:105AA00004A800F057F910220021684603F093FD86
:105AB00008B070BD137812F8010F5B005BB243EAC7
:105AC000D0138A4202F8013CF4D19DF80F305B00FC
:105AD000BFE79DF900206846002A28DA027810F80E
